{
  "contractName": "ChapterHistory",
  "abi": [
    {
      "constant": true,
      "inputs": [
        {
          "name": "",
          "type": "address"
        },
        {
          "name": "",
          "type": "uint256"
        }
      ],
      "name": "chapterHistories",
      "outputs": [
        {
          "name": "",
          "type": "string"
        }
      ],
      "payable": false,
      "stateMutability": "view",
      "type": "function"
    },
    {
      "inputs": [],
      "payable": false,
      "stateMutability": "nonpayable",
      "type": "constructor"
    },
    {
      "anonymous": false,
      "inputs": [
        {
          "indexed": false,
          "name": "user",
          "type": "address"
        },
        {
          "indexed": false,
          "name": "chapter",
          "type": "string"
        }
      ],
      "name": "ChapterHistoryAdded",
      "type": "event"
    },
    {
      "constant": false,
      "inputs": [
        {
          "name": "chapter",
          "type": "string"
        }
      ],
      "name": "addChapterHistory",
      "outputs": [],
      "payable": false,
      "stateMutability": "nonpayable",
      "type": "function"
    },
    {
      "constant": true,
      "inputs": [],
      "name": "getChapterHistories",
      "outputs": [
        {
          "name": "",
          "type": "string[]"
        }
      ],
      "payable": false,
      "stateMutability": "view",
      "type": "function"
    }
  ],
  "bytecode": "0x608060405234801561001057600080fd5b5061065b806100206000396000f3fe608060405260043610610050577c010000000000000000000000000000000000000000000000000000000060003504632974e7da811461005557806356fc51d6146100775780635e7ef870146100a2575b600080fd5b34801561006157600080fd5b5061007561007036600461041d565b6100cf565b005b34801561008357600080fd5b5061008c610140565b6040516100999190610525565b60405180910390f35b3480156100ae57600080fd5b506100c26100bd3660046103e3565b610222565b6040516100999190610536565b336000908152602081815260408220805460018101808355918452928290208451919361010293910191908501906102d8565b50507f35b73f9ab0bcf0d17de4a4c274a62c5079a6141996a20d21fc291e20ff327f0a3382604051610135929190610505565b60405180910390a150565b33600090815260208181526040808320805482518185028101850190935280835260609492939192909184015b828210156102185760008481526020908190208301805460408051601f60026000196101006001871615020190941693909304928301859004850281018501909152818152928301828280156102045780601f106101d957610100808354040283529160200191610204565b820191906000526020600020905b8154815290600101906020018083116101e757829003601f168201915b50505050508152602001906001019061016d565b5050505090505b90565b60006020528160005260406000208181548110151561023d57fe5b600091825260209182902001805460408051601f600260001961010060018716150201909416939093049283018590048502810185019091528181529450909250908301828280156102d05780601f106102a5576101008083540402835291602001916102d0565b820191906000526020600020905b8154815290600101906020018083116102b357829003601f168201915b505050505081565b828054600181600116156101000203166002900490600052602060002090601f016020900481019282601f1061031957805160ff1916838001178555610346565b82800160010185558215610346579182015b8281111561034657825182559160200191906001019061032b565b50610352929150610356565b5090565b61021f91905b80821115610352576000815560010161035c565b600061037c82356105b9565b9392505050565b6000601f8201831361039457600080fd5b81356103a76103a28261056e565b610547565b915080825260208301602083018583830111156103c357600080fd5b6103ce8382846105db565b50505092915050565b600061037c823561021f565b600080604083850312156103f657600080fd5b60006104028585610370565b9250506020610413858286016103d7565b9150509250929050565b60006020828403121561042f57600080fd5b813567ffffffffffffffff81111561044657600080fd5b61045284828501610383565b949350505050565b610463816105ca565b82525050565b60006104748261059c565b8084526020840193508360208202850161048d85610596565b60005b848110156104c45783830388526104a88383516104d0565b92506104b382610596565b602098909801979150600101610490565b50909695505050505050565b60006104db8261059c565b8084526104ef8160208601602086016105e7565b6104f881610617565b9093016020019392505050565b60408101610513828561045a565b818103602083015261045281846104d0565b6020808252810161037c8184610469565b6020808252810161037c81846104d0565b60405181810167ffffffffffffffff8111828210171561056657600080fd5b604052919050565b600067ffffffffffffffff82111561058557600080fd5b506020601f91909101601f19160190565b60200190565b5190565b73ffffffffffffffffffffffffffffffffffffffff1690565b60006105c4826105a0565b92915050565b60006105c48260006105c4826105b9565b82818337506000910152565b60005b838110156106025781810151838201526020016105ea565b83811115610611576000848401525b50505050565b601f01601f19169056fea265627a7a723058207269502bcbbf9fc3d5104e772ce29184e3f5f13ad911fda6d44b4147246188766c6578706572696d656e74616cf50037",
  "source": "// SPDX-License-Identifier: MIT\r\npragma solidity >=0.4.22 <0.9.0;\r\npragma experimental ABIEncoderV2;\r\n\r\ncontract ChapterHistory {\r\n    mapping(address => string[]) public chapterHistories;\r\n    constructor() public {\r\n    }\r\n    // Event to emit when chapter history is added\r\n    event ChapterHistoryAdded(address user, string chapter);\r\n\r\n    // Function to add a chapter history for a user\r\n    function addChapterHistory(string memory chapter) public {\r\n        chapterHistories[msg.sender].push(chapter);\r\n        emit ChapterHistoryAdded(msg.sender, chapter);\r\n    }\r\n\r\n    // Function to get all chapter histories for a user\r\n    function getChapterHistories() public view returns (string[] memory) {\r\n        return chapterHistories[msg.sender];\r\n    }\r\n}\r\n",
  "sourcePath": "C:\\Users\\bouss\\Desktop\\Hackaton\\Smart Contract\\contracts\\ChatHistory.sol",
  "compiler": {
    "name": "solc",
    "version": "0.5.1+commit.c8a2cb62.Emscripten.clang"
  },
  "schemaVersion": "3.4.16",
  "updatedAt": "2024-11-12T03:49:20.178Z",
  "networkType": "ethereum",
  "devdoc": {
    "methods": {}
  },
  "userdoc": {
    "methods": {}
  }
}